:1000000012C017C016C015C014C013C012C011C052
:1000100010C00FC00EC00DC00CC00BC00AC009C07C
:1000200008C007C006C011241FBECFEDCDBF02D04F
:10003000D5C0E6CF8FEF87BB87E886B980E887B960
:1000400081E001E71FE690E0DFE7C7E0BDE70F2EA4
:10005000F6E6EF2EF02DFFE4EBE576E06FE3369A5F
:10006000349BFECF24B135B1232B11F468BBF7CFFD
:1000700024B135B144B155B1F82E2836310508F018
:10008000F92EFF2041F0282F452B09F4292F222398
:1000900011F078BBE4CF24B135B144B155B1F82E9D
:1000A0002E3C310508F0F92EFF2049F0282F483664
:1000B000510508F4292F222311F0E8BBD0CF24B139
:1000C00035B144B155B1F82E2533314008F0F92E41
:1000D000FF2049F0282F4E3C510508F4292F2223F8
:1000E00011F0F8BBBCCF44B155B124B135B1F82EF5
:1000F0004C39514008F0F92EFF2049F0482F2533A4
:10010000314008F4492F442311F0E8BAA8CF44B194
:1001100055B124B135B1F82E4330524008F0F92ED4
:10012000FF2051F0482F2C39314008F4492F442347
:1001300019F0ADE6A8BB93CF44B155B124B135B1A8
:10014000F82E4B36524008F0F92EFF2049F0482F88
:100150002330324008F4492F442311F0B8BB7FCF3D
:1001600044B155B124B135B1F82E423D524008F0AA
:10017000F92EFF2049F0482F2B36324008F4492F42
:10018000442311F0C8BB6BCF44B155B124B135B194
:10019000F82E4A33534008F0F92EFF2049F0482F3B
:1001A000223D324008F4492F442311F0D8BB57CFE9
:1001B00044B155B124B135B1F82E403A534008F05E
:1001C000F92EFF2049F0482F2A33334008F4492FF5
:1001D000442311F018BB43CF08BB41CFF894FFCFA5
:00000001FF
